{
  "_format": "hh-sol-artifact-1",
  "contractName": "AnswerToEarn",
  "sourceName": "contracts/AnswerToEarn.sol",
  "abi": [
    {
      "inputs": [
        {
          "internalType": "uint256",
          "name": "_serviceFee",
          "type": "uint256"
        }
      ],
      "stateMutability": "nonpayable",
      "type": "constructor"
    },
    {
      "anonymous": false,
      "inputs": [
        {
          "indexed": false,
          "internalType": "uint256",
          "name": "id",
          "type": "uint256"
        },
        {
          "indexed": false,
          "internalType": "string",
          "name": "actionType",
          "type": "string"
        },
        {
          "indexed": true,
          "internalType": "address",
          "name": "executor",
          "type": "address"
        },
        {
          "indexed": false,
          "internalType": "uint256",
          "name": "timestamp",
          "type": "uint256"
        }
      ],
      "name": "Action",
      "type": "event"
    },
    {
      "anonymous": false,
      "inputs": [
        {
          "indexed": true,
          "internalType": "address",
          "name": "previousOwner",
          "type": "address"
        },
        {
          "indexed": true,
          "internalType": "address",
          "name": "newOwner",
          "type": "address"
        }
      ],
      "name": "OwnershipTransferred",
      "type": "event"
    },
    {
      "inputs": [
        {
          "internalType": "uint256",
          "name": "qid",
          "type": "uint256"
        },
        {
          "internalType": "string",
          "name": "comment",
          "type": "string"
        }
      ],
      "name": "addAnswer",
      "outputs": [],
      "stateMutability": "nonpayable",
      "type": "function"
    },
    {
      "inputs": [
        {
          "internalType": "uint256",
          "name": "fee",
          "type": "uint256"
        }
      ],
      "name": "changeFee",
      "outputs": [],
      "stateMutability": "nonpayable",
      "type": "function"
    },
    {
      "inputs": [
        {
          "internalType": "string",
          "name": "title",
          "type": "string"
        },
        {
          "internalType": "string",
          "name": "description",
          "type": "string"
        },
        {
          "internalType": "string",
          "name": "tags",
          "type": "string"
        }
      ],
      "name": "createQuestion",
      "outputs": [],
      "stateMutability": "payable",
      "type": "function"
    },
    {
      "inputs": [
        {
          "internalType": "uint256",
          "name": "qid",
          "type": "uint256"
        }
      ],
      "name": "deleteQuestion",
      "outputs": [],
      "stateMutability": "nonpayable",
      "type": "function"
    },
    {
      "inputs": [
        {
          "internalType": "uint256",
          "name": "qid",
          "type": "uint256"
        },
        {
          "internalType": "uint256",
          "name": "id",
          "type": "uint256"
        }
      ],
      "name": "getAnswer",
      "outputs": [
        {
          "components": [
            {
              "internalType": "uint256",
              "name": "id",
              "type": "uint256"
            },
            {
              "internalType": "uint256",
              "name": "qid",
              "type": "uint256"
            },
            {
              "internalType": "string",
              "name": "comment",
              "type": "string"
            },
            {
              "internalType": "address",
              "name": "owner",
              "type": "address"
            },
            {
              "internalType": "bool",
              "name": "deleted",
              "type": "bool"
            },
            {
              "internalType": "uint256",
              "name": "created",
              "type": "uint256"
            },
            {
              "internalType": "uint256",
              "name": "updated",
              "type": "uint256"
            }
          ],
          "internalType": "struct AnswerToEarn.AnswerStruct",
          "name": "",
          "type": "tuple"
        }
      ],
      "stateMutability": "view",
      "type": "function"
    },
    {
      "inputs": [
        {
          "internalType": "uint256",
          "name": "qid",
          "type": "uint256"
        }
      ],
      "name": "getAnswers",
      "outputs": [
        {
          "components": [
            {
              "internalType": "uint256",
              "name": "id",
              "type": "uint256"
            },
            {
              "internalType": "uint256",
              "name": "qid",
              "type": "uint256"
            },
            {
              "internalType": "string",
              "name": "comment",
              "type": "string"
            },
            {
              "internalType": "address",
              "name": "owner",
              "type": "address"
            },
            {
              "internalType": "bool",
              "name": "deleted",
              "type": "bool"
            },
            {
              "internalType": "uint256",
              "name": "created",
              "type": "uint256"
            },
            {
              "internalType": "uint256",
              "name": "updated",
              "type": "uint256"
            }
          ],
          "internalType": "struct AnswerToEarn.AnswerStruct[]",
          "name": "Answers",
          "type": "tuple[]"
        }
      ],
      "stateMutability": "view",
      "type": "function"
    },
    {
      "inputs": [
        {
          "internalType": "uint256",
          "name": "qid",
          "type": "uint256"
        }
      ],
      "name": "getQuestion",
      "outputs": [
        {
          "components": [
            {
              "internalType": "uint256",
              "name": "id",
              "type": "uint256"
            },
            {
              "internalType": "string",
              "name": "title",
              "type": "string"
            },
            {
              "internalType": "string",
              "name": "description",
              "type": "string"
            },
            {
              "internalType": "address",
              "name": "owner",
              "type": "address"
            },
            {
              "internalType": "address",
              "name": "winner",
              "type": "address"
            },
            {
              "internalType": "bool",
              "name": "paidout",
              "type": "bool"
            },
            {
              "internalType": "bool",
              "name": "deleted",
              "type": "bool"
            },
            {
              "internalType": "uint256",
              "name": "updated",
              "type": "uint256"
            },
            {
              "internalType": "uint256",
              "name": "created",
              "type": "uint256"
            },
            {
              "internalType": "uint256",
              "name": "answers",
              "type": "uint256"
            },
            {
              "internalType": "string",
              "name": "tags",
              "type": "string"
            },
            {
              "internalType": "uint256",
              "name": "prize",
              "type": "uint256"
            }
          ],
          "internalType": "struct AnswerToEarn.QuestionStruct",
          "name": "",
          "type": "tuple"
        }
      ],
      "stateMutability": "view",
      "type": "function"
    },
    {
      "inputs": [],
      "name": "getQuestions",
      "outputs": [
        {
          "components": [
            {
              "internalType": "uint256",
              "name": "id",
              "type": "uint256"
            },
            {
              "internalType": "string",
              "name": "title",
              "type": "string"
            },
            {
              "internalType": "string",
              "name": "description",
              "type": "string"
            },
            {
              "internalType": "address",
              "name": "owner",
              "type": "address"
            },
            {
              "internalType": "address",
              "name": "winner",
              "type": "address"
            },
            {
              "internalType": "bool",
              "name": "paidout",
              "type": "bool"
            },
            {
              "internalType": "bool",
              "name": "deleted",
              "type": "bool"
            },
            {
              "internalType": "uint256",
              "name": "updated",
              "type": "uint256"
            },
            {
              "internalType": "uint256",
              "name": "created",
              "type": "uint256"
            },
            {
              "internalType": "uint256",
              "name": "answers",
              "type": "uint256"
            },
            {
              "internalType": "string",
              "name": "tags",
              "type": "string"
            },
            {
              "internalType": "uint256",
              "name": "prize",
              "type": "uint256"
            }
          ],
          "internalType": "struct AnswerToEarn.QuestionStruct[]",
          "name": "Questions",
          "type": "tuple[]"
        }
      ],
      "stateMutability": "view",
      "type": "function"
    },
    {
      "inputs": [],
      "name": "owner",
      "outputs": [
        {
          "internalType": "address",
          "name": "",
          "type": "address"
        }
      ],
      "stateMutability": "view",
      "type": "function"
    },
    {
      "inputs": [
        {
          "internalType": "uint256",
          "name": "qid",
          "type": "uint256"
        },
        {
          "internalType": "uint256",
          "name": "id",
          "type": "uint256"
        }
      ],
      "name": "payWinner",
      "outputs": [],
      "stateMutability": "nonpayable",
      "type": "function"
    },
    {
      "inputs": [],
      "name": "renounceOwnership",
      "outputs": [],
      "stateMutability": "nonpayable",
      "type": "function"
    },
    {
      "inputs": [],
      "name": "serviceFee",
      "outputs": [
        {
          "internalType": "uint256",
          "name": "",
          "type": "uint256"
        }
      ],
      "stateMutability": "view",
      "type": "function"
    },
    {
      "inputs": [
        {
          "internalType": "address",
          "name": "newOwner",
          "type": "address"
        }
      ],
      "name": "transferOwnership",
      "outputs": [],
      "stateMutability": "nonpayable",
      "type": "function"
    },
    {
      "inputs": [
        {
          "internalType": "uint256",
          "name": "qid",
          "type": "uint256"
        },
        {
          "internalType": "string",
          "name": "title",
          "type": "string"
        },
        {
          "internalType": "string",
          "name": "description",
          "type": "string"
        },
        {
          "internalType": "string",
          "name": "tags",
          "type": "string"
        }
      ],
      "name": "updateQuestion",
      "outputs": [],
      "stateMutability": "nonpayable",
      "type": "function"
    }
  ],
  "bytecode": "0x60806040523480156200001157600080fd5b50604051620044403803806200444083398181016040528101906200003791906200017b565b60016000819055506200005f620000536200006d60201b60201c565b6200007560201b60201c565b8060048190555050620001ad565b600033905090565b6000600160009054906101000a900473ffffffffffffffffffffffffffffffffffffffff16905081600160006101000a81548173ffffffffffffffffffffffffffffffffffffffff021916908373ffffffffffffffffffffffffffffffffffffffff1602179055508173ffffffffffffffffffffffffffffffffffffffff168173ffffffffffffffffffffffffffffffffffffffff167f8be0079c531659141344cd1fd0a4f28419497f9722a3daafe3b4186f6b6457e060405160405180910390a35050565b600080fd5b6000819050919050565b620001558162000140565b81146200016157600080fd5b50565b60008151905062000175816200014a565b92915050565b6000602082840312156200019457620001936200013b565b5b6000620001a48482850162000164565b91505092915050565b61428380620001bd6000396000f3fe6080604052600436106100dd5760003560e01c80638da5cb5b1161007f578063a22c1bc911610059578063a22c1bc914610284578063db88176f146102c1578063e93fa19c146102fe578063f2fde38b1461031a576100dd565b80638da5cb5b1461020557806397221ab7146102305780639a3c4c791461025b576100dd565b8063715018a6116100bb578063715018a6146101715780637491995a1461018857806381e1dc94146101b15780638abdf5aa146101da576100dd565b8063020c9945146100e25780631e59e02a1461010b5780636a1db1bf14610148575b600080fd5b3480156100ee57600080fd5b50610109600480360381019061010491906128ec565b610343565b005b34801561011757600080fd5b50610132600480360381019061012d919061292c565b6106ca565b60405161013f9190612bb2565b60405180910390f35b34801561015457600080fd5b5061016f600480360381019061016a919061292c565b610794565b005b34801561017d57600080fd5b506101866107f6565b005b34801561019457600080fd5b506101af60048036038101906101aa9190612d09565b61080a565b005b3480156101bd57600080fd5b506101d860048036038101906101d39190612d65565b610b01565b005b3480156101e657600080fd5b506101ef610e15565b6040516101fc9190612e2f565b60405180910390f35b34801561021157600080fd5b5061021a610e1b565b6040516102279190612e59565b60405180910390f35b34801561023c57600080fd5b50610245610e45565b6040516102529190613048565b60405180910390f35b34801561026757600080fd5b50610282600480360381019061027d919061292c565b61128b565b005b34801561029057600080fd5b506102ab60048036038101906102a691906128ec565b6114c9565b6040516102b89190613106565b60405180910390f35b3480156102cd57600080fd5b506102e860048036038101906102e3919061292c565b611633565b6040516102f5919061323a565b60405180910390f35b6103186004803603810190610313919061325c565b61192b565b005b34801561032657600080fd5b50610341600480360381019061033c919061332f565b611cd3565b005b61034b611d56565b6005600083815260200190815260200160002060009054906101000a900460ff166103ab576040517f08c379a00000000000000000000000000000000000000000000000000000000081526004016103a2906133b9565b60405180910390fd5b806007600084815260200190815260200160002060008381526020019081526020016000206000015414610414576040517f08c379a000000000000000000000000000000000000000000000000000000000815260040161040b90613425565b60405180910390fd5b6006600083815260200190815260200160002060040160149054906101000a900460ff1615610478576040517f08c379a000000000000000000000000000000000000000000000000000000000815260040161046f90613491565b60405180910390fd5b6006600083815260200190815260200160002060030160009054906101000a900473ffffffffffffffffffffffffffffffffffffffff1673ffffffffffffffffffffffffffffffffffffffff163373ffffffffffffffffffffffffffffffffffffffff16148061051a57506104eb610e1b565b73ffffffffffffffffffffffffffffffffffffffff163373ffffffffffffffffffffffffffffffffffffffff16145b610559576040517f08c379a0000000000000000000000000000000000000000000000000000000008152600401610550906134fd565b60405180910390fd5b6000600660008481526020019081526020016000206009015490506000606460045483610586919061354c565b61059091906135bd565b9050600060076000868152602001908152602001600020600085815260200190815260200160002060030160009054906101000a900473ffffffffffffffffffffffffffffffffffffffff16905060016006600087815260200190815260200160002060040160146101000a81548160ff021916908315150217905550806006600087815260200190815260200160002060040160006101000a81548173ffffffffffffffffffffffffffffffffffffffff021916908373ffffffffffffffffffffffffffffffffffffffff16021790555061066a611da5565b600760008781526020019081526020016000206000868152602001908152602001600020600501819055506106aa8183856106a591906135ee565b611dc5565b6106bb6106b5610e1b565b83611dc5565b5050506106c6611e76565b5050565b60606006600083815260200190815260200160002060030160009054906101000a900473ffffffffffffffffffffffffffffffffffffffff1673ffffffffffffffffffffffffffffffffffffffff163373ffffffffffffffffffffffffffffffffffffffff16148061076e575061073f610e1b565b73ffffffffffffffffffffffffffffffffffffffff163373ffffffffffffffffffffffffffffffffffffffff16145b156107835761077c82611e80565b905061078f565b61078c82612145565b90505b919050565b61079c6125f0565b6000811180156107ad575060648111155b6107ec576040517f08c379a00000000000000000000000000000000000000000000000000000000081526004016107e39061366e565b60405180910390fd5b8060048190555050565b6107fe6125f0565b610808600061266e565b565b6005600083815260200190815260200160002060009054906101000a900460ff1661086a576040517f08c379a0000000000000000000000000000000000000000000000000000000008152600401610861906133b9565b60405180910390fd5b6006600083815260200190815260200160002060040160149054906101000a900460ff16156108ce576040517f08c379a00000000000000000000000000000000000000000000000000000000081526004016108c5906136da565b60405180910390fd5b6000815111610912576040517f08c379a000000000000000000000000000000000000000000000000000000000815260040161090990613746565b60405180910390fd5b61091c6003612734565b6109246127bc565b61092e600361274a565b8160000181815250508281602001818152505081816040018190525033816060019073ffffffffffffffffffffffffffffffffffffffff16908173ffffffffffffffffffffffffffffffffffffffff168152505061098a611da5565b8160a001818152505061099b611da5565b8160c00181815250506006600084815260200190815260200160002060070160008154809291906109cb90613766565b9190505550806007600085815260200190815260200160002060008360000151815260200190815260200160002060008201518160000155602082015181600101556040820151816002019081610a2291906139ba565b5060608201518160030160006101000a81548173ffffffffffffffffffffffffffffffffffffffff021916908373ffffffffffffffffffffffffffffffffffffffff16021790555060808201518160030160146101000a81548160ff02191690831515021790555060a0820151816004015560c082015181600501559050503373ffffffffffffffffffffffffffffffffffffffff167faee8e5d3bbb2f71a951b5632cee20f7ac487b9f8ab4f66a236f7694b13af7c6a8260000151610ae6611da5565b604051610af4929190613ad8565b60405180910390a2505050565b6005600085815260200190815260200160002060009054906101000a900460ff16610b61576040517f08c379a0000000000000000000000000000000000000000000000000000000008152600401610b58906133b9565b60405180910390fd5b6001600660008681526020019081526020016000206007015410610bba576040517f08c379a0000000000000000000000000000000000000000000000000000000008152600401610bb190613b60565b60405180910390fd5b6000835111610bfe576040517f08c379a0000000000000000000000000000000000000000000000000000000008152600401610bf590613bcc565b60405180910390fd5b6000825111610c42576040517f08c379a0000000000000000000000000000000000000000000000000000000008152600401610c3990613c38565b60405180910390fd5b6000815111610c86576040517f08c379a0000000000000000000000000000000000000000000000000000000008152600401610c7d90613ca4565b60405180910390fd5b6006600085815260200190815260200160002060030160009054906101000a900473ffffffffffffffffffffffffffffffffffffffff1673ffffffffffffffffffffffffffffffffffffffff163373ffffffffffffffffffffffffffffffffffffffff1614610d2a576040517f08c379a0000000000000000000000000000000000000000000000000000000008152600401610d2190613d10565b60405180910390fd5b82600660008681526020019081526020016000206001019081610d4d91906139ba565b5080600660008681526020019081526020016000206008019081610d7191906139ba565b5081600660008681526020019081526020016000206002019081610d9591906139ba565b50610d9e611da5565b60066000868152602001908152602001600020600501819055503373ffffffffffffffffffffffffffffffffffffffff167faee8e5d3bbb2f71a951b5632cee20f7ac487b9f8ab4f66a236f7694b13af7c6a85610df9611da5565b604051610e07929190613d7c565b60405180910390a250505050565b60045481565b6000600160009054906101000a900473ffffffffffffffffffffffffffffffffffffffff16905090565b60606000805b610e55600261274a565b811015610eb25760066000600183610e6d9190613db8565b815260200190815260200160002060040160159054906101000a900460ff16610e9f578180610e9b90613766565b9250505b8080610eaa90613766565b915050610e4b565b508067ffffffffffffffff811115610ecd57610ecc612bde565b5b604051908082528060200260200182016040528015610f0657816020015b610ef3612811565b815260200190600190039081610eeb5790505b5091506000805b610f17600261274a565b8110156112855760066000600183610f2f9190613db8565b815260200190815260200160002060040160159054906101000a900460ff166112725760066000600183610f639190613db8565b81526020019081526020016000206040518061018001604052908160008201548152602001600182018054610f97906137dd565b80601f0160208091040260200160405190810160405280929190818152602001828054610fc3906137dd565b80156110105780601f10610fe557610100808354040283529160200191611010565b820191906000526020600020905b815481529060010190602001808311610ff357829003601f168201915b50505050508152602001600282018054611029906137dd565b80601f0160208091040260200160405190810160405280929190818152602001828054611055906137dd565b80156110a25780601f10611077576101008083540402835291602001916110a2565b820191906000526020600020905b81548152906001019060200180831161108557829003601f168201915b505050505081526020016003820160009054906101000a900473ffffffffffffffffffffffffffffffffffffffff1673ffffffffffffffffffffffffffffffffffffffff1673ffffffffffffffffffffffffffffffffffffffff1681526020016004820160009054906101000a900473ffffffffffffffffffffffffffffffffffffffff1673ffffffffffffffffffffffffffffffffffffffff1673ffffffffffffffffffffffffffffffffffffffff1681526020016004820160149054906101000a900460ff161515151581526020016004820160159054906101000a900460ff161515151581526020016005820154815260200160068201548152602001600782015481526020016008820180546111bb906137dd565b80601f01602080910402602001604051908101604052809291908181526020018280546111e7906137dd565b80156112345780601f1061120957610100808354040283529160200191611234565b820191906000526020600020905b81548152906001019060200180831161121757829003601f168201915b5050505050815260200160098201548152505084838061125390613766565b94508151811061126657611265613dec565b5b60200260200101819052505b808061127d90613766565b915050610f0d565b50505090565b6005600082815260200190815260200160002060009054906101000a900460ff166112eb576040517f08c379a00000000000000000000000000000000000000000000000000000000081526004016112e2906133b9565b60405180910390fd5b6001600660008381526020019081526020016000206007015410611344576040517f08c379a000000000000000000000000000000000000000000000000000000000815260040161133b90613b60565b60405180910390fd5b6006600082815260200190815260200160002060030160009054906101000a900473ffffffffffffffffffffffffffffffffffffffff1673ffffffffffffffffffffffffffffffffffffffff163373ffffffffffffffffffffffffffffffffffffffff16146113e8576040517f08c379a00000000000000000000000000000000000000000000000000000000081526004016113df90613d10565b60405180910390fd5b6113f26002612758565b60016006600083815260200190815260200160002060040160156101000a81548160ff02191690831515021790555060006005600083815260200190815260200160002060006101000a81548160ff021916908315150217905550611455611da5565b60066000838152602001908152602001600020600501819055503373ffffffffffffffffffffffffffffffffffffffff167faee8e5d3bbb2f71a951b5632cee20f7ac487b9f8ab4f66a236f7694b13af7c6a826114b0611da5565b6040516114be929190613e67565b60405180910390a250565b6114d16127bc565b6007600084815260200190815260200160002060008381526020019081526020016000206040518060e00160405290816000820154815260200160018201548152602001600282018054611524906137dd565b80601f0160208091040260200160405190810160405280929190818152602001828054611550906137dd565b801561159d5780601f106115725761010080835404028352916020019161159d565b820191906000526020600020905b81548152906001019060200180831161158057829003601f168201915b505050505081526020016003820160009054906101000a900473ffffffffffffffffffffffffffffffffffffffff1673ffffffffffffffffffffffffffffffffffffffff1673ffffffffffffffffffffffffffffffffffffffff1681526020016003820160149054906101000a900460ff1615151515815260200160048201548152602001600582015481525050905092915050565b61163b612811565b600660008381526020019081526020016000206040518061018001604052908160008201548152602001600182018054611674906137dd565b80601f01602080910402602001604051908101604052809291908181526020018280546116a0906137dd565b80156116ed5780601f106116c2576101008083540402835291602001916116ed565b820191906000526020600020905b8154815290600101906020018083116116d057829003601f168201915b50505050508152602001600282018054611706906137dd565b80601f0160208091040260200160405190810160405280929190818152602001828054611732906137dd565b801561177f5780601f106117545761010080835404028352916020019161177f565b820191906000526020600020905b81548152906001019060200180831161176257829003601f168201915b505050505081526020016003820160009054906101000a900473ffffffffffffffffffffffffffffffffffffffff1673ffffffffffffffffffffffffffffffffffffffff1673ffffffffffffffffffffffffffffffffffffffff1681526020016004820160009054906101000a900473ffffffffffffffffffffffffffffffffffffffff1673ffffffffffffffffffffffffffffffffffffffff1673ffffffffffffffffffffffffffffffffffffffff1681526020016004820160149054906101000a900460ff161515151581526020016004820160159054906101000a900460ff16151515158152602001600582015481526020016006820154815260200160078201548152602001600882018054611898906137dd565b80601f01602080910402602001604051908101604052809291908181526020018280546118c4906137dd565b80156119115780601f106118e657610100808354040283529160200191611911565b820191906000526020600020905b8154815290600101906020018083116118f457829003601f168201915b505050505081526020016009820154815250509050919050565b600083511161196f576040517f08c379a000000000000000000000000000000000000000000000000000000000815260040161196690613bcc565b60405180910390fd5b60008251116119b3576040517f08c379a00000000000000000000000000000000000000000000000000000000081526004016119aa90613c38565b60405180910390fd5b60008151116119f7576040517f08c379a00000000000000000000000000000000000000000000000000000000081526004016119ee90613ca4565b60405180910390fd5b60003411611a3a576040517f08c379a0000000000000000000000000000000000000000000000000000000008152600401611a3190613eef565b60405180910390fd5b611a42612811565b611a4c6002612734565b611a56600261274a565b81600001818152505083816020018190525082816040018190525081816101400181905250348161016001818152505033816060019073ffffffffffffffffffffffffffffffffffffffff16908173ffffffffffffffffffffffffffffffffffffffff1681525050611ac6611da5565b8160e0018181525050611ad7611da5565b81610100018181525050806006600083600001518152602001908152602001600020600082015181600001556020820151816001019081611b1891906139ba565b506040820151816002019081611b2e91906139ba565b5060608201518160030160006101000a81548173ffffffffffffffffffffffffffffffffffffffff021916908373ffffffffffffffffffffffffffffffffffffffff16021790555060808201518160040160006101000a81548173ffffffffffffffffffffffffffffffffffffffff021916908373ffffffffffffffffffffffffffffffffffffffff16021790555060a08201518160040160146101000a81548160ff02191690831515021790555060c08201518160040160156101000a81548160ff02191690831515021790555060e0820151816005015561010082015181600601556101208201518160070155610140820151816008019081611c3391906139ba565b5061016082015181600901559050506001600560008360000151815260200190815260200160002060006101000a81548160ff0219169083151502179055503373ffffffffffffffffffffffffffffffffffffffff167faee8e5d3bbb2f71a951b5632cee20f7ac487b9f8ab4f66a236f7694b13af7c6a8260000151611cb7611da5565b604051611cc5929190613f5b565b60405180910390a250505050565b611cdb6125f0565b600073ffffffffffffffffffffffffffffffffffffffff168173ffffffffffffffffffffffffffffffffffffffff1603611d4a576040517f08c379a0000000000000000000000000000000000000000000000000000000008152600401611d4190614009565b60405180910390fd5b611d538161266e565b50565b600260005403611d9b576040517f08c379a0000000000000000000000000000000000000000000000000000000008152600401611d9290614075565b60405180910390fd5b6002600081905550565b60006103e88042611db6919061354c565b611dc09190613db8565b905090565b60008273ffffffffffffffffffffffffffffffffffffffff1682604051611deb906140c6565b60006040518083038185875af1925050503d8060008114611e28576040519150601f19603f3d011682016040523d82523d6000602084013e611e2d565b606091505b5050905080611e71576040517f08c379a0000000000000000000000000000000000000000000000000000000008152600401611e6890614127565b60405180910390fd5b505050565b6001600081905550565b60606000805b611e90600361274a565b811015611ef35783600760008681526020019081526020016000206000600184611eba9190613db8565b81526020019081526020016000206001015403611ee0578180611edc90613766565b9250505b8080611eeb90613766565b915050611e86565b508067ffffffffffffffff811115611f0e57611f0d612bde565b5b604051908082528060200260200182016040528015611f4757816020015b611f346127bc565b815260200190600190039081611f2c5790505b5091506000805b611f58600361274a565b81101561213d5784600760008781526020019081526020016000206000600184611f829190613db8565b8152602001908152602001600020600101540361212a57600760008681526020019081526020016000206000600183611fbb9190613db8565b81526020019081526020016000206040518060e00160405290816000820154815260200160018201548152602001600282018054611ff8906137dd565b80601f0160208091040260200160405190810160405280929190818152602001828054612024906137dd565b80156120715780601f1061204657610100808354040283529160200191612071565b820191906000526020600020905b81548152906001019060200180831161205457829003601f168201915b505050505081526020016003820160009054906101000a900473ffffffffffffffffffffffffffffffffffffffff1673ffffffffffffffffffffffffffffffffffffffff1673ffffffffffffffffffffffffffffffffffffffff1681526020016003820160149054906101000a900460ff161515151581526020016004820154815260200160058201548152505084838061210b90613766565b94508151811061211e5761211d613dec565b5b60200260200101819052505b808061213590613766565b915050611f4e565b505050919050565b60606000805b612155600361274a565b8110156121b8578360076000868152602001908152602001600020600060018461217f9190613db8565b815260200190815260200160002060010154036121a55781806121a190613766565b9250505b80806121b090613766565b91505061214b565b508067ffffffffffffffff8111156121d3576121d2612bde565b5b60405190808252806020026020018201604052801561220c57816020015b6121f96127bc565b8152602001906001900390816121f15790505b5091506000805b61221d600361274a565b8110156125e857846007600087815260200190815260200160002060006001846122479190613db8565b815260200190815260200160002060010154036125d5576006600086815260200190815260200160002060040160149054906101000a900460ff161561241c576007600086815260200190815260200160002060006001836122a99190613db8565b81526020019081526020016000206040518060e001604052908160008201548152602001600182015481526020016002820180546122e6906137dd565b80601f0160208091040260200160405190810160405280929190818152602001828054612312906137dd565b801561235f5780601f106123345761010080835404028352916020019161235f565b820191906000526020600020905b81548152906001019060200180831161234257829003601f168201915b505050505081526020016003820160009054906101000a900473ffffffffffffffffffffffffffffffffffffffff1673ffffffffffffffffffffffffffffffffffffffff1673ffffffffffffffffffffffffffffffffffffffff1681526020016003820160149054906101000a900460ff16151515158152602001600482015481526020016005820154815250508483806123f990613766565b94508151811061240c5761240b613dec565b5b60200260200101819052506125d4565b60006007600087815260200190815260200160002060006001846124409190613db8565b81526020019081526020016000206040518060e0016040529081600082015481526020016001820154815260200160028201805461247d906137dd565b80601f01602080910402602001604051908101604052809291908181526020018280546124a9906137dd565b80156124f65780601f106124cb576101008083540402835291602001916124f6565b820191906000526020600020905b8154815290600101906020018083116124d957829003601f168201915b505050505081526020016003820160009054906101000a900473ffffffffffffffffffffffffffffffffffffffff1673ffffffffffffffffffffffffffffffffffffffff1673ffffffffffffffffffffffffffffffffffffffff1681526020016003820160149054906101000a900460ff161515151581526020016004820154815260200160058201548152505090506040518060600160405280602e8152602001614220602e91398160400181905250808584806125b490613766565b9550815181106125c7576125c6613dec565b5b6020026020010181905250505b5b80806125e090613766565b915050612213565b505050919050565b6125f86127b4565b73ffffffffffffffffffffffffffffffffffffffff16612616610e1b565b73ffffffffffffffffffffffffffffffffffffffff161461266c576040517f08c379a000000000000000000000000000000000000000000000000000000000815260040161266390614193565b60405180910390fd5b565b6000600160009054906101000a900473ffffffffffffffffffffffffffffffffffffffff16905081600160006101000a81548173ffffffffffffffffffffffffffffffffffffffff021916908373ffffffffffffffffffffffffffffffffffffffff1602179055508173ffffffffffffffffffffffffffffffffffffffff168173ffffffffffffffffffffffffffffffffffffffff167f8be0079c531659141344cd1fd0a4f28419497f9722a3daafe3b4186f6b6457e060405160405180910390a35050565b6001816000016000828254019250508190555050565b600081600001549050919050565b600081600001549050600081116127a4576040517f08c379a000000000000000000000000000000000000000000000000000000000815260040161279b906141ff565b60405180910390fd5b6001810382600001819055505050565b600033905090565b6040518060e00160405280600081526020016000815260200160608152602001600073ffffffffffffffffffffffffffffffffffffffff16815260200160001515815260200160008152602001600081525090565b604051806101800160405280600081526020016060815260200160608152602001600073ffffffffffffffffffffffffffffffffffffffff168152602001600073ffffffffffffffffffffffffffffffffffffffff16815260200160001515815260200160001515815260200160008152602001600081526020016000815260200160608152602001600081525090565b6000604051905090565b600080fd5b600080fd5b6000819050919050565b6128c9816128b6565b81146128d457600080fd5b50565b6000813590506128e6816128c0565b92915050565b60008060408385031215612903576129026128ac565b5b6000612911858286016128d7565b9250506020612922858286016128d7565b9150509250929050565b600060208284031215612942576129416128ac565b5b6000612950848285016128d7565b91505092915050565b600081519050919050565b600082825260208201905092915050565b6000819050602082019050919050565b61298e816128b6565b82525050565b600081519050919050565b600082825260208201905092915050565b60005b838110156129ce5780820151818401526020810190506129b3565b60008484015250505050565b6000601f19601f8301169050919050565b60006129f682612994565b612a00818561299f565b9350612a108185602086016129b0565b612a19816129da565b840191505092915050565b600073ffffffffffffffffffffffffffffffffffffffff82169050919050565b6000612a4f82612a24565b9050919050565b612a5f81612a44565b82525050565b60008115159050919050565b612a7a81612a65565b82525050565b600060e083016000830151612a986000860182612985565b506020830151612aab6020860182612985565b5060408301518482036040860152612ac382826129eb565b9150506060830151612ad86060860182612a56565b506080830151612aeb6080860182612a71565b5060a0830151612afe60a0860182612985565b5060c0830151612b1160c0860182612985565b508091505092915050565b6000612b288383612a80565b905092915050565b6000602082019050919050565b6000612b4882612959565b612b528185612964565b935083602082028501612b6485612975565b8060005b85811015612ba05784840389528151612b818582612b1c565b9450612b8c83612b30565b925060208a01995050600181019050612b68565b50829750879550505050505092915050565b60006020820190508181036000830152612bcc8184612b3d565b905092915050565b600080fd5b600080fd5b7f4e487b7100000000000000000000000000000000000000000000000000000000600052604160045260246000fd5b612c16826129da565b810181811067ffffffffffffffff82111715612c3557612c34612bde565b5b80604052505050565b6000612c486128a2565b9050612c548282612c0d565b919050565b600067ffffffffffffffff821115612c7457612c73612bde565b5b612c7d826129da565b9050602081019050919050565b82818337600083830152505050565b6000612cac612ca784612c59565b612c3e565b905082815260208101848484011115612cc857612cc7612bd9565b5b612cd3848285612c8a565b509392505050565b600082601f830112612cf057612cef612bd4565b5b8135612d00848260208601612c99565b91505092915050565b60008060408385031215612d2057612d1f6128ac565b5b6000612d2e858286016128d7565b925050602083013567ffffffffffffffff811115612d4f57612d4e6128b1565b5b612d5b85828601612cdb565b9150509250929050565b60008060008060808587031215612d7f57612d7e6128ac565b5b6000612d8d878288016128d7565b945050602085013567ffffffffffffffff811115612dae57612dad6128b1565b5b612dba87828801612cdb565b935050604085013567ffffffffffffffff811115612ddb57612dda6128b1565b5b612de787828801612cdb565b925050606085013567ffffffffffffffff811115612e0857612e076128b1565b5b612e1487828801612cdb565b91505092959194509250565b612e29816128b6565b82525050565b6000602082019050612e446000830184612e20565b92915050565b612e5381612a44565b82525050565b6000602082019050612e6e6000830184612e4a565b92915050565b600081519050919050565b600082825260208201905092915050565b6000819050602082019050919050565b600061018083016000830151612eb96000860182612985565b5060208301518482036020860152612ed182826129eb565b91505060408301518482036040860152612eeb82826129eb565b9150506060830151612f006060860182612a56565b506080830151612f136080860182612a56565b5060a0830151612f2660a0860182612a71565b5060c0830151612f3960c0860182612a71565b5060e0830151612f4c60e0860182612985565b50610100830151612f61610100860182612985565b50610120830151612f76610120860182612985565b50610140830151848203610140860152612f9082826129eb565b915050610160830151612fa7610160860182612985565b508091505092915050565b6000612fbe8383612ea0565b905092915050565b6000602082019050919050565b6000612fde82612e74565b612fe88185612e7f565b935083602082028501612ffa85612e90565b8060005b8581101561303657848403895281516130178582612fb2565b945061302283612fc6565b925060208a01995050600181019050612ffe565b50829750879550505050505092915050565b600060208201905081810360008301526130628184612fd3565b905092915050565b600060e0830160008301516130826000860182612985565b5060208301516130956020860182612985565b50604083015184820360408601526130ad82826129eb565b91505060608301516130c26060860182612a56565b5060808301516130d56080860182612a71565b5060a08301516130e860a0860182612985565b5060c08301516130fb60c0860182612985565b508091505092915050565b60006020820190508181036000830152613120818461306a565b905092915050565b6000610180830160008301516131416000860182612985565b506020830151848203602086015261315982826129eb565b9150506040830151848203604086015261317382826129eb565b91505060608301516131886060860182612a56565b50608083015161319b6080860182612a56565b5060a08301516131ae60a0860182612a71565b5060c08301516131c160c0860182612a71565b5060e08301516131d460e0860182612985565b506101008301516131e9610100860182612985565b506101208301516131fe610120860182612985565b5061014083015184820361014086015261321882826129eb565b91505061016083015161322f610160860182612985565b508091505092915050565b600060208201905081810360008301526132548184613128565b905092915050565b600080600060608486031215613275576132746128ac565b5b600084013567ffffffffffffffff811115613293576132926128b1565b5b61329f86828701612cdb565b935050602084013567ffffffffffffffff8111156132c0576132bf6128b1565b5b6132cc86828701612cdb565b925050604084013567ffffffffffffffff8111156132ed576132ec6128b1565b5b6132f986828701612cdb565b9150509250925092565b61330c81612a44565b811461331757600080fd5b50565b60008135905061332981613303565b92915050565b600060208284031215613345576133446128ac565b5b60006133538482850161331a565b91505092915050565b600082825260208201905092915050565b7f5175657374696f6e206e6f7420666f756e640000000000000000000000000000600082015250565b60006133a360128361335c565b91506133ae8261336d565b602082019050919050565b600060208201905081810360008301526133d281613396565b9050919050565b7f416e73776572206e6f7420666f756e6400000000000000000000000000000000600082015250565b600061340f60108361335c565b915061341a826133d9565b602082019050919050565b6000602082019050818103600083015261343e81613402565b9050919050565b7f5175657374696f6e20616c72656164792070616964206f757400000000000000600082015250565b600061347b60198361335c565b915061348682613445565b602082019050919050565b600060208201905081810360008301526134aa8161346e565b9050919050565b7f556e617574686f72697a656420656e7469747900000000000000000000000000600082015250565b60006134e760138361335c565b91506134f2826134b1565b602082019050919050565b60006020820190508181036000830152613516816134da565b9050919050565b7f4e487b7100000000000000000000000000000000000000000000000000000000600052601160045260246000fd5b6000613557826128b6565b9150613562836128b6565b9250828202613570816128b6565b915082820484148315176135875761358661351d565b5b5092915050565b7f4e487b7100000000000000000000000000000000000000000000000000000000600052601260045260246000fd5b60006135c8826128b6565b91506135d3836128b6565b9250826135e3576135e261358e565b5b828204905092915050565b60006135f9826128b6565b9150613604836128b6565b925082820390508181111561361c5761361b61351d565b5b92915050565b7f466565206d757374206265206265747765656e2031202d203130300000000000600082015250565b6000613658601b8361335c565b915061366382613622565b602082019050919050565b600060208201905081810360008301526136878161364b565b9050919050565b7f5175657374696f6e20616c726561647920706169646f75740000000000000000600082015250565b60006136c460188361335c565b91506136cf8261368e565b602082019050919050565b600060208201905081810360008301526136f3816136b7565b9050919050565b7f416e73776572206d757374206e6f7420626520656d7074790000000000000000600082015250565b600061373060188361335c565b915061373b826136fa565b602082019050919050565b6000602082019050818103600083015261375f81613723565b9050919050565b6000613771826128b6565b91507fffffffffffffffffffffffffffffffffffffffffffffffffffffffffffffffff82036137a3576137a261351d565b5b600182019050919050565b7f4e487b7100000000000000000000000000000000000000000000000000000000600052602260045260246000fd5b600060028204905060018216806137f557607f821691505b602082108103613808576138076137ae565b5b50919050565b60008190508160005260206000209050919050565b60006020601f8301049050919050565b600082821b905092915050565b6000600883026138707fffffffffffffffffffffffffffffffffffffffffffffffffffffffffffffffff82613833565b61387a8683613833565b95508019841693508086168417925050509392505050565b6000819050919050565b60006138b76138b26138ad846128b6565b613892565b6128b6565b9050919050565b6000819050919050565b6138d18361389c565b6138e56138dd826138be565b848454613840565b825550505050565b600090565b6138fa6138ed565b6139058184846138c8565b505050565b5b818110156139295761391e6000826138f2565b60018101905061390b565b5050565b601f82111561396e5761393f8161380e565b61394884613823565b81016020851015613957578190505b61396b61396385613823565b83018261390a565b50505b505050565b600082821c905092915050565b600061399160001984600802613973565b1980831691505092915050565b60006139aa8383613980565b9150826002028217905092915050565b6139c382612994565b67ffffffffffffffff8111156139dc576139db612bde565b5b6139e682546137dd565b6139f182828561392d565b600060209050601f831160018114613a245760008415613a12578287015190505b613a1c858261399e565b865550613a84565b601f198416613a328661380e565b60005b82811015613a5a57848901518255600182019150602085019450602081019050613a35565b86831015613a775784890151613a73601f891682613980565b8355505b6001600288020188555050505b505050505050565b7f416e737765722063726561746564000000000000000000000000000000000000600082015250565b6000613ac2600e8361335c565b9150613acd82613a8c565b602082019050919050565b6000606082019050613aed6000830185612e20565b8181036020830152613afe81613ab5565b9050613b0d6040830184612e20565b9392505050565b7f5175657374696f6e20616c7265616479207769746820616e7377657228732900600082015250565b6000613b4a601f8361335c565b9150613b5582613b14565b602082019050919050565b60006020820190508181036000830152613b7981613b3d565b9050919050565b7f7469746c65206d757374206e6f7420626520656d707479000000000000000000600082015250565b6000613bb660178361335c565b9150613bc182613b80565b602082019050919050565b60006020820190508181036000830152613be581613ba9565b9050919050565b7f6465736372697074696f6e206d757374206e6f7420626520656d707479000000600082015250565b6000613c22601d8361335c565b9150613c2d82613bec565b602082019050919050565b60006020820190508181036000830152613c5181613c15565b9050919050565b7f74616773206d757374206e6f7420626520656d70747900000000000000000000600082015250565b6000613c8e60168361335c565b9150613c9982613c58565b602082019050919050565b60006020820190508181036000830152613cbd81613c81565b9050919050565b7f556e617574686f72697a656420656e7469747921000000000000000000000000600082015250565b6000613cfa60148361335c565b9150613d0582613cc4565b602082019050919050565b60006020820190508181036000830152613d2981613ced565b9050919050565b7f5175657374696f6e207570646174656400000000000000000000000000000000600082015250565b6000613d6660108361335c565b9150613d7182613d30565b602082019050919050565b6000606082019050613d916000830185612e20565b8181036020830152613da281613d59565b9050613db16040830184612e20565b9392505050565b6000613dc3826128b6565b9150613dce836128b6565b9250828201905080821115613de657613de561351d565b5b92915050565b7f4e487b7100000000000000000000000000000000000000000000000000000000600052603260045260246000fd5b7f5175657374696f6e2064656c6574656400000000000000000000000000000000600082015250565b6000613e5160108361335c565b9150613e5c82613e1b565b602082019050919050565b6000606082019050613e7c6000830185612e20565b8181036020830152613e8d81613e44565b9050613e9c6040830184612e20565b9392505050565b7f496e73756666696369656e7420616d6f756e7400000000000000000000000000600082015250565b6000613ed960138361335c565b9150613ee482613ea3565b602082019050919050565b60006020820190508181036000830152613f0881613ecc565b9050919050565b7f5175657374696f6e206372656174656400000000000000000000000000000000600082015250565b6000613f4560108361335c565b9150613f5082613f0f565b602082019050919050565b6000606082019050613f706000830185612e20565b8181036020830152613f8181613f38565b9050613f906040830184612e20565b9392505050565b7f4f776e61626c653a206e6577206f776e657220697320746865207a65726f206160008201527f6464726573730000000000000000000000000000000000000000000000000000602082015250565b6000613ff360268361335c565b9150613ffe82613f97565b604082019050919050565b6000602082019050818103600083015261402281613fe6565b9050919050565b7f5265656e7472616e637947756172643a207265656e7472616e742063616c6c00600082015250565b600061405f601f8361335c565b915061406a82614029565b602082019050919050565b6000602082019050818103600083015261408e81614052565b9050919050565b600081905092915050565b50565b60006140b0600083614095565b91506140bb826140a0565b600082019050919050565b60006140d1826140a3565b9150819050919050565b7f5061796d656e74206661696c6564000000000000000000000000000000000000600082015250565b6000614111600e8361335c565b915061411c826140db565b602082019050919050565b6000602082019050818103600083015261414081614104565b9050919050565b7f4f776e61626c653a2063616c6c6572206973206e6f7420746865206f776e6572600082015250565b600061417d60208361335c565b915061418882614147565b602082019050919050565b600060208201905081810360008301526141ac81614170565b9050919050565b7f436f756e7465723a2064656372656d656e74206f766572666c6f770000000000600082015250565b60006141e9601b8361335c565b91506141f4826141b3565b602082019050919050565b60006020820190508181036000830152614218816141dc565b905091905056fe48696464656e203e3e202a2a2a2a202a2a2a202a2a202a2a2a202a2a2a2a202a2a2a202a2a2a202a2a202a2a2a2aa26469706673582212204e28df314963b3196db7c3789f59ceab3f3d60c1d44139a546d5b71dc10aab3964736f6c63430008130033",
  "linkReferences": {},
  "deployedLinkReferences": {}
}